{
  "contractName": "EtherSign",
  "abi": [
    {
      "constant": false,
      "inputs": [],
      "name": "unpause",
      "outputs": [],
      "payable": false,
      "stateMutability": "nonpayable",
      "type": "function"
    },
    {
      "constant": true,
      "inputs": [],
      "name": "documentCounter",
      "outputs": [
        {
          "name": "",
          "type": "uint256"
        }
      ],
      "payable": false,
      "stateMutability": "view",
      "type": "function"
    },
    {
      "constant": true,
      "inputs": [],
      "name": "paused",
      "outputs": [
        {
          "name": "",
          "type": "bool"
        }
      ],
      "payable": false,
      "stateMutability": "view",
      "type": "function"
    },
    {
      "constant": false,
      "inputs": [],
      "name": "pause",
      "outputs": [],
      "payable": false,
      "stateMutability": "nonpayable",
      "type": "function"
    },
    {
      "constant": true,
      "inputs": [],
      "name": "owner",
      "outputs": [
        {
          "name": "",
          "type": "address"
        }
      ],
      "payable": false,
      "stateMutability": "view",
      "type": "function"
    },
    {
      "constant": false,
      "inputs": [
        {
          "name": "newOwner",
          "type": "address"
        }
      ],
      "name": "transferOwnership",
      "outputs": [],
      "payable": false,
      "stateMutability": "nonpayable",
      "type": "function"
    },
    {
      "anonymous": false,
      "inputs": [
        {
          "indexed": true,
          "name": "signer",
          "type": "address"
        },
        {
          "indexed": true,
          "name": "delegate",
          "type": "address"
        },
        {
          "indexed": true,
          "name": "documentId",
          "type": "uint256"
        },
        {
          "indexed": false,
          "name": "title",
          "type": "string"
        },
        {
          "indexed": false,
          "name": "content",
          "type": "string"
        },
        {
          "indexed": false,
          "name": "time",
          "type": "uint64"
        }
      ],
      "name": "DocumentSigned",
      "type": "event"
    },
    {
      "anonymous": false,
      "inputs": [
        {
          "indexed": true,
          "name": "signer",
          "type": "address"
        },
        {
          "indexed": true,
          "name": "delegate",
          "type": "address"
        },
        {
          "indexed": true,
          "name": "documentId",
          "type": "uint256"
        },
        {
          "indexed": false,
          "name": "time",
          "type": "uint64"
        }
      ],
      "name": "SignerAdded",
      "type": "event"
    },
    {
      "anonymous": false,
      "inputs": [
        {
          "indexed": true,
          "name": "signer",
          "type": "address"
        },
        {
          "indexed": true,
          "name": "delegate",
          "type": "address"
        },
        {
          "indexed": false,
          "name": "time",
          "type": "uint64"
        }
      ],
      "name": "Authorized",
      "type": "event"
    },
    {
      "anonymous": false,
      "inputs": [
        {
          "indexed": true,
          "name": "signer",
          "type": "address"
        },
        {
          "indexed": true,
          "name": "delegate",
          "type": "address"
        },
        {
          "indexed": false,
          "name": "time",
          "type": "uint64"
        }
      ],
      "name": "Deauthorized",
      "type": "event"
    },
    {
      "anonymous": false,
      "inputs": [],
      "name": "Pause",
      "type": "event"
    },
    {
      "anonymous": false,
      "inputs": [],
      "name": "Unpause",
      "type": "event"
    },
    {
      "anonymous": false,
      "inputs": [
        {
          "indexed": true,
          "name": "previousOwner",
          "type": "address"
        },
        {
          "indexed": true,
          "name": "newOwner",
          "type": "address"
        }
      ],
      "name": "OwnershipTransferred",
      "type": "event"
    },
    {
      "constant": false,
      "inputs": [
        {
          "name": "_title",
          "type": "string"
        },
        {
          "name": "_content",
          "type": "string"
        },
        {
          "name": "_signer",
          "type": "address"
        }
      ],
      "name": "signDocument",
      "outputs": [],
      "payable": false,
      "stateMutability": "nonpayable",
      "type": "function"
    },
    {
      "constant": false,
      "inputs": [
        {
          "name": "_documentId",
          "type": "uint256"
        },
        {
          "name": "_signer",
          "type": "address"
        }
      ],
      "name": "addSigner",
      "outputs": [],
      "payable": false,
      "stateMutability": "nonpayable",
      "type": "function"
    },
    {
      "constant": false,
      "inputs": [
        {
          "name": "_delegate",
          "type": "address"
        }
      ],
      "name": "authorize",
      "outputs": [],
      "payable": false,
      "stateMutability": "nonpayable",
      "type": "function"
    },
    {
      "constant": false,
      "inputs": [],
      "name": "deauthorize",
      "outputs": [],
      "payable": false,
      "stateMutability": "nonpayable",
      "type": "function"
    },
    {
      "constant": true,
      "inputs": [
        {
          "name": "_signer",
          "type": "address"
        }
      ],
      "name": "getDelegate",
      "outputs": [
        {
          "name": "",
          "type": "address"
        }
      ],
      "payable": false,
      "stateMutability": "view",
      "type": "function"
    },
    {
      "constant": true,
      "inputs": [
        {
          "name": "_signer",
          "type": "address"
        },
        {
          "name": "_delegate",
          "type": "address"
        }
      ],
      "name": "isDelegate",
      "outputs": [
        {
          "name": "",
          "type": "bool"
        }
      ],
      "payable": false,
      "stateMutability": "view",
      "type": "function"
    }
  ],
  "bytecode": "0x608060405260008060146101000a81548160ff021916908315150217905550336000806101000a81548173ffffffffffffffffffffffffffffffffffffffff021916908373ffffffffffffffffffffffffffffffffffffffff1602179055506110ac8061006d6000396000f3006080604052600436106100ba576000357c0100000000000000000000000000000000000000000000000000000000900463ffffffff16806315a09825146100bf5780633f4ba83a1461010c578063544d85641461012357806358f313bb146101a65780635c975abb146101d15780635fec5d0b146102005780638456cb591461027b5780638da5cb5b146102925780638fc99ba4146102e9578063b6a5d7de14610300578063c401917114610343578063f2fde38b146103b6575b600080fd5b3480156100cb57600080fd5b5061010a60048036038101908080359060200190929190803573ffffffffffffffffffffffffffffffffffffffff1690602001909291905050506103f9565b005b34801561011857600080fd5b50610121610578565b005b34801561012f57600080fd5b50610164600480360381019080803573ffffffffffffffffffffffffffffffffffffffff169060200190929190505050610636565b604051808273ffffffffffffffffffffffffffffffffffffffff1673ffffffffffffffffffffffffffffffffffffffff16815260200191505060405180910390f35b3480156101b257600080fd5b506101bb61069f565b6040518082815260200191505060405180910390f35b3480156101dd57600080fd5b506101e66106a5565b604051808215151515815260200191505060405180910390f35b34801561020c57600080fd5b50610261600480360381019080803573ffffffffffffffffffffffffffffffffffffffff169060200190929190803573ffffffffffffffffffffffffffffffffffffffff1690602001909291905050506106b8565b604051808215151515815260200191505060405180910390f35b34801561028757600080fd5b50610290610794565b005b34801561029e57600080fd5b506102a7610854565b604051808273ffffffffffffffffffffffffffffffffffffffff1673ffffffffffffffffffffffffffffffffffffffff16815260200191505060405180910390f35b3480156102f557600080fd5b506102fe610879565b005b34801561030c57600080fd5b50610341600480360381019080803573ffffffffffffffffffffffffffffffffffffffff169060200190929190505050610a50565b005b34801561034f57600080fd5b506103b4600480360381019080803590602001908201803590602001919091929391929390803590602001908201803590602001919091929391929390803573ffffffffffffffffffffffffffffffffffffffff169060200190929190505050610d62565b005b3480156103c257600080fd5b506103f7600480360381019080803573ffffffffffffffffffffffffffffffffffffffff169060200190929190505050610f2b565b005b60008060149054906101000a900460ff1615151561041657600080fd5b600254831115151561042757600080fd5b600160008373ffffffffffffffffffffffffffffffffffffffff1673ffffffffffffffffffffffffffffffffffffffff16815260200190815260200160002060009054906101000a900473ffffffffffffffffffffffffffffffffffffffff1690508173ffffffffffffffffffffffffffffffffffffffff163373ffffffffffffffffffffffffffffffffffffffff1614806104ee57508073ffffffffffffffffffffffffffffffffffffffff163373ffffffffffffffffffffffffffffffffffffffff16145b15156104f957600080fd5b828173ffffffffffffffffffffffffffffffffffffffff168373ffffffffffffffffffffffffffffffffffffffff167fe267245f1905323ca6ed72ea140dfb4250aea0cf180dc92e88707962677df2fe42604051808267ffffffffffffffff1667ffffffffffffffff16815260200191505060405180910390a4505050565b6000809054906101000a900473ffffffffffffffffffffffffffffffffffffffff1673ffffffffffffffffffffffffffffffffffffffff163373ffffffffffffffffffffffffffffffffffffffff161415156105d357600080fd5b600060149054906101000a900460ff1615156105ee57600080fd5b60008060146101000a81548160ff0219169083151502179055507f7805862f689e2f13df9f062ff482ad3ad112aca9e0847911ed832e158c525b3360405160405180910390a1565b6000600160008373ffffffffffffffffffffffffffffffffffffffff1673ffffffffffffffffffffffffffffffffffffffff16815260200190815260200160002060009054906101000a900473ffffffffffffffffffffffffffffffffffffffff169050919050565b60025481565b600060149054906101000a900460ff1681565b600080600160008573ffffffffffffffffffffffffffffffffffffffff1673ffffffffffffffffffffffffffffffffffffffff16815260200190815260200160002060009054906101000a900473ffffffffffffffffffffffffffffffffffffffff169050600073ffffffffffffffffffffffffffffffffffffffff168173ffffffffffffffffffffffffffffffffffffffff16141561075b576000915061078d565b8273ffffffffffffffffffffffffffffffffffffffff168173ffffffffffffffffffffffffffffffffffffffff161491505b5092915050565b6000809054906101000a900473ffffffffffffffffffffffffffffffffffffffff1673ffffffffffffffffffffffffffffffffffffffff163373ffffffffffffffffffffffffffffffffffffffff161415156107ef57600080fd5b600060149054906101000a900460ff1615151561080b57600080fd5b6001600060146101000a81548160ff0219169083151502179055507f6985a02210a168e66602d3235cb6db0e70f92b3ba4d376a33c0f3d9434bff62560405160405180910390a1565b6000809054906101000a900473ffffffffffffffffffffffffffffffffffffffff1681565b60008073ffffffffffffffffffffffffffffffffffffffff16600160003373ffffffffffffffffffffffffffffffffffffffff1673ffffffffffffffffffffffffffffffffffffffff16815260200190815260200160002060009054906101000a900473ffffffffffffffffffffffffffffffffffffffff1673ffffffffffffffffffffffffffffffffffffffff16141515610a4d57600160003373ffffffffffffffffffffffffffffffffffffffff1673ffffffffffffffffffffffffffffffffffffffff16815260200190815260200160002060009054906101000a900473ffffffffffffffffffffffffffffffffffffffff169050600160003373ffffffffffffffffffffffffffffffffffffffff1673ffffffffffffffffffffffffffffffffffffffff16815260200190815260200160002060006101000a81549073ffffffffffffffffffffffffffffffffffffffff02191690558073ffffffffffffffffffffffffffffffffffffffff163373ffffffffffffffffffffffffffffffffffffffff167f3442ea513bb6a6eab6895b22e77be2bd063076b96547ad1f780265044b43244342604051808267ffffffffffffffff1667ffffffffffffffff16815260200191505060405180910390a35b50565b60008060149054906101000a900460ff16151515610a6d57600080fd5b3373ffffffffffffffffffffffffffffffffffffffff168273ffffffffffffffffffffffffffffffffffffffff1614151515610aa857600080fd5b600073ffffffffffffffffffffffffffffffffffffffff168273ffffffffffffffffffffffffffffffffffffffff1614151515610ae457600080fd5b600160003373ffffffffffffffffffffffffffffffffffffffff1673ffffffffffffffffffffffffffffffffffffffff16815260200190815260200160002060009054906101000a900473ffffffffffffffffffffffffffffffffffffffff1690508073ffffffffffffffffffffffffffffffffffffffff168273ffffffffffffffffffffffffffffffffffffffff1614151515610b8157600080fd5b8173ffffffffffffffffffffffffffffffffffffffff168173ffffffffffffffffffffffffffffffffffffffff16141515610d5e5781600160003373ffffffffffffffffffffffffffffffffffffffff1673ffffffffffffffffffffffffffffffffffffffff16815260200190815260200160002060006101000a81548173ffffffffffffffffffffffffffffffffffffffff021916908373ffffffffffffffffffffffffffffffffffffffff160217905550600073ffffffffffffffffffffffffffffffffffffffff168173ffffffffffffffffffffffffffffffffffffffff16141515610ce4578073ffffffffffffffffffffffffffffffffffffffff163373ffffffffffffffffffffffffffffffffffffffff167f3442ea513bb6a6eab6895b22e77be2bd063076b96547ad1f780265044b43244342604051808267ffffffffffffffff1667ffffffffffffffff16815260200191505060405180910390a35b8173ffffffffffffffffffffffffffffffffffffffff163373ffffffffffffffffffffffffffffffffffffffff167f83703fe8b294cc32b763c449fee2a72fe93408b75637bcb48d0350de560dd56d42604051808267ffffffffffffffff1667ffffffffffffffff16815260200191505060405180910390a35b5050565b60008060149054906101000a900460ff16151515610d7f57600080fd5b600160008373ffffffffffffffffffffffffffffffffffffffff1673ffffffffffffffffffffffffffffffffffffffff16815260200190815260200160002060009054906101000a900473ffffffffffffffffffffffffffffffffffffffff1690508173ffffffffffffffffffffffffffffffffffffffff163373ffffffffffffffffffffffffffffffffffffffff161480610e4657508073ffffffffffffffffffffffffffffffffffffffff163373ffffffffffffffffffffffffffffffffffffffff16145b1515610e5157600080fd5b6002600081548092919060010191905055506002548173ffffffffffffffffffffffffffffffffffffffff168373ffffffffffffffffffffffffffffffffffffffff167fe6bfb388e6d091c24dfe456a1158450a8a3a6100a195ae8917f399fe11fb1ff989898989426040518080602001806020018467ffffffffffffffff1667ffffffffffffffff168152602001838103835288888281815260200192508082843782019150508381038252868682818152602001925080828437820191505097505050505050505060405180910390a4505050505050565b6000809054906101000a900473ffffffffffffffffffffffffffffffffffffffff1673ffffffffffffffffffffffffffffffffffffffff163373ffffffffffffffffffffffffffffffffffffffff16141515610f8657600080fd5b600073ffffffffffffffffffffffffffffffffffffffff168173ffffffffffffffffffffffffffffffffffffffff1614151515610fc257600080fd5b8073ffffffffffffffffffffffffffffffffffffffff166000809054906101000a900473ffffffffffffffffffffffffffffffffffffffff1673ffffffffffffffffffffffffffffffffffffffff167f8be0079c531659141344cd1fd0a4f28419497f9722a3daafe3b4186f6b6457e060405160405180910390a3806000806101000a81548173ffffffffffffffffffffffffffffffffffffffff021916908373ffffffffffffffffffffffffffffffffffffffff160217905550505600a165627a7a723058200eb828f06b65e08076e9b4ea484bc2aa9528cb3be8ee0a2822ffdcbce27af2180029",
  "source": "pragma solidity 0.4.24;\n\nimport \"zeppelin/contracts/lifecycle/Pausable.sol\";\n\n/**\n * @title EtherSign - document signing affordably on the Ethereum blockchain!\n\n * @notice\n   This contract opt for storing document through firing of events as a (much) cheaper alternative than storing the document in storage since string storage on Ethereum blockchain is extremely expensive.\n   For more detailed design pattern explaination, please refer to design_pattern_desicions.md\n\n * @dev the contract can be paused by owner in case of catastrophic bugs. Contract can be then upgraded and frontend can adopt the new address. The contract has been kept intentionally simple and straightforward to avoid potential attacks.\n*/\n\ncontract EtherSign is Pausable {\n  /*** EVENTS ***/\n\n  // @dev Again we don't store much outside of what is light and absolute neccessary in storage due to cost. Most data we try to manage via event firing\n\n  // @dev Document related events. All events are kept intentionally similar orders as when searching for events we utilize topics and argument order matters.\n  event DocumentSigned(address indexed signer, address indexed delegate, uint indexed documentId, string title, string content, uint64 time);\n  event SignerAdded(address indexed signer, address indexed delegate, uint indexed documentId, uint64 time);\n\n  // @dev Signing authority related events\n  event Authorized(address indexed signer, address indexed delegate, uint64 time);\n  event Deauthorized(address indexed signer, address indexed delegate, uint64 time);\n\n  // @dev A straightforward mappin to keep track of authorized signers\n  mapping (address => address) authorizedDelegates;\n\n  // @dev We keep an internal document counter which is basically the document ID per se on the blockchain. This way we can later retrieve the doc by searching for the event with the id\n  uint public documentCounter;\n\n  /** @dev Mark a document signed by an address by firing approriate event.\n    * @param _title The title of the document.\n    * @param _content A LZMA compressed base64 string that can be decompressed to a fully styled document.\n    * @param _signer Address of the person (or any capable intelligent being - AI, the matrix etc) who is signing the document.\n  */\n  function signDocument(string _title, string _content, address _signer) external whenNotPaused {\n    address delegate = authorizedDelegates[_signer];\n    require((msg.sender == _signer) || (msg.sender == delegate));\n    documentCounter ++;\n    emit DocumentSigned(_signer, delegate, documentCounter, _title, _content, uint64(now));\n  }\n\n  /** @dev Add additional signatures to an existing document.\n    * @param _documentId The documentId assigned when the document was signed for the first time.\n    * @param _signer Address of the person who is signing the document.\n  */\n  function addSigner(uint _documentId, address _signer) external whenNotPaused {\n    // contract need to exist\n    require(_documentId <= documentCounter);\n    address delegate = authorizedDelegates[_signer];\n    // only the sender or an authorized delegate can sign on the sender behalf\n    require((msg.sender == _signer) || (msg.sender == delegate));\n    emit SignerAdded(_signer, delegate, _documentId, uint64(now));\n  }\n\n  /** @dev We allow an account to authorize 1 other account to sign document on their behalf. Think of it like Power of Attorney etc.\n    * @param _delegate The address of the account that you authorize full signing power for you.\n  */\n  function authorize(address _delegate) external whenNotPaused {\n    // You cannot set yourself, address 0 or existing delegate as your delegate, no need to waste gas on that.\n    require(_delegate != msg.sender);\n    require(_delegate != address(0));\n    address lastDelegate = authorizedDelegates[msg.sender];\n    require(_delegate != lastDelegate);\n\n    if (lastDelegate != _delegate) {\n      authorizedDelegates[msg.sender] = _delegate;\n\n      // We need to fire events approriatly for real accounts (not for address 0) since we use events to track all the signers a delegate is responsible for.\n\n      if (lastDelegate != address(0)) {\n        emit Deauthorized(msg.sender, lastDelegate, uint64(now));\n      }\n\n      emit Authorized(msg.sender, _delegate, uint64(now));\n    }\n  }\n\n  /** @dev Remove a previous delegate one have previous assigned. Note here we allow this method to be fired even when the contract is not paused as users should be able to retract in all circumstances.\n  */\n  function deauthorize() external {\n    if (authorizedDelegates[msg.sender] != address(0)) {\n      address delegate = authorizedDelegates[msg.sender];\n      delete authorizedDelegates[msg.sender];\n      emit Deauthorized(msg.sender, delegate, uint64(now));\n    }\n  }\n\n  /** @dev Look up delegate who has signing power for a known address.\n    * @param _signer The signer address we want to look up for.\n    * @return address The signing delegate for the inquired address.\n  */\n  function getDelegate(address _signer) external view returns (address) {\n    return authorizedDelegates[_signer];\n  }\n\n  /** @dev Check if an address has signing power for an address. Another convinience method to check signing power.\n    * @param _signer The signer address we want to look up for.\n    * @param _delegate The delegate address we want to look up for.\n    * @return boolean Whether or not the inquired delegate address has signing power for the signer address.\n  */\n  function isDelegate(address _signer, address _delegate) external view returns (bool) {\n    address delegate = authorizedDelegates[_signer];\n\n    // We do not consider address 0 as delegate for anyone as that is the default value and theoretically no one should have access to address 0 account.\n    if (delegate == address(0)) {\n      return false;\n    } else {\n      return (delegate == _delegate);\n    }\n  }\n}\n",
  "sourcePath": "/Users/annawu/Documents/My Files/WebDev/ethereum-dev/ether-sign/contracts/EtherSign.sol",
  "compiler": {
    "name": "solc",
    "version": "0.4.24+commit.e67f0147.Emscripten.clang"
  },
  "schemaVersion": "2.0.1",
  "updatedAt": "2018-07-31T11:27:09.289Z"
}